:10015F0012014812009AE5096401450870F5FEFF87
:01016F00226D
:05000300C283D284223B
:05020F00D283C284222D
:05021400C283C2842238
:05021900C285D286221F
:05021E00D285C286221A
:05022300C285C2862225
:05022800D2B5C2B622B0
:05022D00C2B5D2B622AB
:05023200C2B5C2B622B6
:05023700D2B3C2B422A5
:05023C00C2B3D2B422A0
:05024100C2B3C2B422AB
:100148005389F0438901758AA4758CFFC28DD28CBE
:07015800D2A9D2AFC2B92207
:03000B00020114DB
:10011400C0E0C0D0758AA4758CFF050DE50DC394AD
:10012400644003750D00E50DC3950E500AD287D2C5
:1001340082D2B7D2B28008C287C282C2B7C2B2D05A
:04014400D0D0E03205
:0F017000750E371200031202191202280202370D
:0F017F00750E2812020F12021E12022D02023CF0
:0F018E00E4F50E12021412022312023202024191
:0F019D00750E28120214120219120232020237D2
:0F01AC00750E28120003120223120228020241CC
:0F01BB00750E2312021412021E12023202023CAF
:0F01CA00750E1412020F12022312022D020241AF
:0F01D900750E3C12020F12021912022D0202378C
:0F01E800750E3C12000312021E12022802023C86
:0B02030002080000010A00020B0000CE
:0B01F7000000007F0B7EBEDEFEDFFC80
:0102020022D9
:10009A0030900C2091093092063093031201AC3053
:1000AA00900C30910920920630930312019D209002
:1000BA000C3091093092063093031201E830900C0B
:1000CA003091093092062093031201D92090093009
:1000DA0091062092032093182090093091063092BD
:1000EA000330930C30900B20910830920520930234
:1000FA00050A20901430911130920E20930BE50AD4
:0A010A0030E0030201701201CA2266
:0300000002000EED
:0C000E00787FE4F6D8FD75810E020055E5
:10001A0002015FE493A3F8E493A34003F68001F29C
:10002A0008DFF48029E493A3F85407240CC8C333E7
:10003A00C4540F4420C8834004F456800146F6DFB6
:10004A00E4800B0102040810204080900203E47E41
:10005A00019360BCA3FF543F30E509541FFEE493AB
:10006A00A360010ECF54C025E060A840B8E493A372
:10007A00FAE493A3F8E493A3C8C582C8CAC583CA9D
:10008A00F0A3C8C582C8CAC583CADFE9DEE780BE55
:01020E0000EF
:00000001FF
